{
  "contractName": "SimpleWallet",
  "abi": [
    {
      "inputs": [],
      "payable": false,
      "stateMutability": "nonpayable",
      "type": "constructor"
    },
    {
      "payable": true,
      "stateMutability": "payable",
      "type": "fallback"
    },
    {
      "anonymous": false,
      "inputs": [
        {
          "indexed": false,
          "name": "_sender",
          "type": "address"
        },
        {
          "indexed": false,
          "name": "amount",
          "type": "uint256"
        }
      ],
      "name": "Deposit",
      "type": "event"
    },
    {
      "anonymous": false,
      "inputs": [
        {
          "indexed": false,
          "name": "_sender",
          "type": "address"
        },
        {
          "indexed": false,
          "name": "amount",
          "type": "uint256"
        },
        {
          "indexed": false,
          "name": "_beneficiary",
          "type": "address"
        }
      ],
      "name": "Withdrawl",
      "type": "event"
    },
    {
      "constant": true,
      "inputs": [],
      "name": "getOwner",
      "outputs": [
        {
          "name": "",
          "type": "address"
        }
      ],
      "payable": false,
      "stateMutability": "view",
      "type": "function"
    },
    {
      "constant": false,
      "inputs": [
        {
          "name": "amount",
          "type": "uint256"
        },
        {
          "name": "receiver",
          "type": "address"
        }
      ],
      "name": "sendFunds",
      "outputs": [
        {
          "name": "",
          "type": "uint256"
        }
      ],
      "payable": false,
      "stateMutability": "nonpayable",
      "type": "function"
    },
    {
      "constant": true,
      "inputs": [
        {
          "name": "_address",
          "type": "address"
        }
      ],
      "name": "getNumberWithdrawls",
      "outputs": [
        {
          "name": "",
          "type": "uint256"
        }
      ],
      "payable": false,
      "stateMutability": "view",
      "type": "function"
    },
    {
      "constant": true,
      "inputs": [
        {
          "name": "_address",
          "type": "address"
        },
        {
          "name": "index",
          "type": "uint256"
        }
      ],
      "name": "getWithdrawls",
      "outputs": [
        {
          "name": "",
          "type": "address"
        },
        {
          "name": "",
          "type": "uint256"
        }
      ],
      "payable": false,
      "stateMutability": "view",
      "type": "function"
    },
    {
      "constant": false,
      "inputs": [
        {
          "name": "_address",
          "type": "address"
        }
      ],
      "name": "allowAddressToSendMoney",
      "outputs": [],
      "payable": false,
      "stateMutability": "nonpayable",
      "type": "function"
    },
    {
      "constant": false,
      "inputs": [
        {
          "name": "_address",
          "type": "address"
        }
      ],
      "name": "disallowAddressToSendMoney",
      "outputs": [],
      "payable": false,
      "stateMutability": "nonpayable",
      "type": "function"
    },
    {
      "constant": true,
      "inputs": [
        {
          "name": "_address",
          "type": "address"
        }
      ],
      "name": "isAllowedToSend",
      "outputs": [
        {
          "name": "",
          "type": "bool"
        }
      ],
      "payable": false,
      "stateMutability": "view",
      "type": "function"
    },
    {
      "constant": false,
      "inputs": [],
      "name": "killWallet",
      "outputs": [],
      "payable": false,
      "stateMutability": "nonpayable",
      "type": "function"
    }
  ],
  "bytecode": "0x6060604052341561000f57600080fd5b336000806101000a81548173ffffffffffffffffffffffffffffffffffffffff021916908373ffffffffffffffffffffffffffffffffffffffff160217905550610a8e8061005e6000396000f30060606040526004361061008e576000357c0100000000000000000000000000000000000000000000000000000000900463ffffffff1680630bc605ad1461010f578063893d20e8146101605780639c12d6fa146101b5578063b268677414610202578063b67ba1b514610258578063c40046481461026d578063e481553e146102a6578063febf56cf146102df575b61009733610368565b15156100a257600080fd5b7fe1fffcc4923d04b559f4d29a8bfc6cda04eb5b0d3c460751c2402c5c5cc9109c3334604051808373ffffffffffffffffffffffffffffffffffffffff1673ffffffffffffffffffffffffffffffffffffffff1681526020018281526020019250505060405180910390a1005b341561011a57600080fd5b610146600480803573ffffffffffffffffffffffffffffffffffffffff16906020019091905050610368565b604051808215151515815260200191505060405180910390f35b341561016b57600080fd5b610173610418565b604051808273ffffffffffffffffffffffffffffffffffffffff1673ffffffffffffffffffffffffffffffffffffffff16815260200191505060405180910390f35b34156101c057600080fd5b6101ec600480803573ffffffffffffffffffffffffffffffffffffffff16906020019091905050610441565b6040518082815260200191505060405180910390f35b341561020d57600080fd5b610242600480803590602001909190803573ffffffffffffffffffffffffffffffffffffffff1690602001909190505061048d565b6040518082815260200191505060405180910390f35b341561026357600080fd5b61026b61078e565b005b341561027857600080fd5b6102a4600480803573ffffffffffffffffffffffffffffffffffffffff1690602001909190505061081f565b005b34156102b157600080fd5b6102dd600480803573ffffffffffffffffffffffffffffffffffffffff169060200190919050506108d2565b005b34156102ea57600080fd5b61031f600480803573ffffffffffffffffffffffffffffffffffffffff16906020019091908035906020019091905050610986565b604051808373ffffffffffffffffffffffffffffffffffffffff1673ffffffffffffffffffffffffffffffffffffffff1681526020018281526020019250505060405180910390f35b6000600160008373ffffffffffffffffffffffffffffffffffffffff1673ffffffffffffffffffffffffffffffffffffffff16815260200190815260200160002060000160009054906101000a900460ff168061041157506000809054906101000a900473ffffffffffffffffffffffffffffffffffffffff1673ffffffffffffffffffffffffffffffffffffffff168273ffffffffffffffffffffffffffffffffffffffff16145b9050919050565b60008060009054906101000a900473ffffffffffffffffffffffffffffffffffffffff16905090565b6000600160008373ffffffffffffffffffffffffffffffffffffffff1673ffffffffffffffffffffffffffffffffffffffff168152602001908152602001600020600101549050919050565b60008061049933610368565b1561078657833073ffffffffffffffffffffffffffffffffffffffff1631101515610785578273ffffffffffffffffffffffffffffffffffffffff166108fc859081150290604051600060405180830381858888f1935050505015156104fe57600080fd5b7f2ce435329ed2714bb4f4b7d0fe33307418dcf239c8c61d63a6b2fe052f7491c2338585604051808473ffffffffffffffffffffffffffffffffffffffff1673ffffffffffffffffffffffffffffffffffffffff1681526020018381526020018273ffffffffffffffffffffffffffffffffffffffff1673ffffffffffffffffffffffffffffffffffffffff168152602001935050505060405180910390a1600160003373ffffffffffffffffffffffffffffffffffffffff1673ffffffffffffffffffffffffffffffffffffffff1681526020019081526020016000206001016000815480929190600101919050555082600160003373ffffffffffffffffffffffffffffffffffffffff1673ffffffffffffffffffffffffffffffffffffffff1681526020019081526020016000206002016000600160003373ffffffffffffffffffffffffffffffffffffffff1673ffffffffffffffffffffffffffffffffffffffff16815260200190815260200160002060010154815260200190815260200160002060000160006101000a81548173ffffffffffffffffffffffffffffffffffffffff021916908373ffffffffffffffffffffffffffffffffffffffff16021790555083600160003373ffffffffffffffffffffffffffffffffffffffff1673ffffffffffffffffffffffffffffffffffffffff1681526020019081526020016000206002016000600160003373ffffffffffffffffffffffffffffffffffffffff1673ffffffffffffffffffffffffffffffffffffffff168152602001908152602001600020600101548152602001908152602001600020600101819055503073ffffffffffffffffffffffffffffffffffffffff16319050809150610787565b5b5b5092915050565b6000809054906101000a900473ffffffffffffffffffffffffffffffffffffffff1673ffffffffffffffffffffffffffffffffffffffff163373ffffffffffffffffffffffffffffffffffffffff16141561081d576000809054906101000a900473ffffffffffffffffffffffffffffffffffffffff1673ffffffffffffffffffffffffffffffffffffffff16ff5b565b6000809054906101000a900473ffffffffffffffffffffffffffffffffffffffff1673ffffffffffffffffffffffffffffffffffffffff163373ffffffffffffffffffffffffffffffffffffffff1614156108cf5760018060008373ffffffffffffffffffffffffffffffffffffffff1673ffffffffffffffffffffffffffffffffffffffff16815260200190815260200160002060000160006101000a81548160ff0219169083151502179055505b50565b6000809054906101000a900473ffffffffffffffffffffffffffffffffffffffff1673ffffffffffffffffffffffffffffffffffffffff163373ffffffffffffffffffffffffffffffffffffffff161415610983576000600160008373ffffffffffffffffffffffffffffffffffffffff1673ffffffffffffffffffffffffffffffffffffffff16815260200190815260200160002060000160006101000a81548160ff0219169083151502179055505b50565b600080600160008573ffffffffffffffffffffffffffffffffffffffff1673ffffffffffffffffffffffffffffffffffffffff168152602001908152602001600020600201600084815260200190815260200160002060000160009054906101000a900473ffffffffffffffffffffffffffffffffffffffff16600160008673ffffffffffffffffffffffffffffffffffffffff1673ffffffffffffffffffffffffffffffffffffffff1681526020019081526020016000206002016000858152602001908152602001600020600101549150915092509290505600a165627a7a72305820a34235101d7593c6ee130064347499b43120c9f4d4d055006987bcc8404fb7260029",
  "source": "pragma solidity^0.4.17;\n\ncontract SimpleWallet {\n    address owner;\n    \n    struct WithdrawlStruct {\n        address to;\n        uint amount;\n    }\n\n    struct Senders {\n        bool allowed;\n        uint amount_sends;\n        mapping(uint => WithdrawlStruct) withdrawls;\n    }\n\n    mapping(address => Senders) isAllowedToSendFundsMapping;\n\n    event Deposit(address _sender, uint amount);\n    event Withdrawl(address _sender, uint amount, address _beneficiary);\n\n    function SimpleWallet() public {\n        owner = msg.sender;\n    }\n\n    function getOwner() public view returns (address){\n        return owner;\n    }\n\n    function() public payable{\n        require(isAllowedToSend(msg.sender));\n        Deposit(msg.sender, msg.value);\n    }\n\n    function sendFunds(uint amount, address receiver) public returns (uint) {\n        if(isAllowedToSend(msg.sender)) {\n            if(address(this).balance >= amount){\n                receiver.transfer(amount);\n                Withdrawl(msg.sender, amount, receiver);\n                isAllowedToSendFundsMapping[msg.sender].amount_sends++;\n                isAllowedToSendFundsMapping[msg.sender].withdrawls[isAllowedToSendFundsMapping[msg.sender].amount_sends].to = receiver;\n                isAllowedToSendFundsMapping[msg.sender].withdrawls[isAllowedToSendFundsMapping[msg.sender].amount_sends].amount = amount;\n                uint balance = address(this).balance;\n                return balance;\n            }\n        }\n    }\n\n\n    function getNumberWithdrawls(address _address) public constant returns (uint) {\n        return isAllowedToSendFundsMapping[_address].amount_sends;\n    }\n\n    function getWithdrawls(address _address, uint index) public constant returns (address, uint) {\n        return (isAllowedToSendFundsMapping[_address].withdrawls[index].to, isAllowedToSendFundsMapping[_address].withdrawls[index].amount);\n    }\n\n    function allowAddressToSendMoney(address _address) public {\n        if(msg.sender == owner) {\n            isAllowedToSendFundsMapping[_address].allowed = true;\n        }\n    }\n\n    function disallowAddressToSendMoney(address _address) public {\n        if(msg.sender == owner) {\n            isAllowedToSendFundsMapping[_address].allowed = false;\n        }\n    }\n\n    function isAllowedToSend(address _address) public constant returns (bool) {\n        return isAllowedToSendFundsMapping[_address].allowed || _address == owner;\n    }\n\n    function killWallet() public {\n        if(msg.sender == owner) {\n            selfdestruct(owner);\n        }\n    }\n\n}",
  "sourcePath": "/home/jatin/Projects/Blockchain/simplewallet/contracts/SimpleWallet.sol",
  "compiler": {
    "name": "solc",
    "version": "0.4.19+commit.c4cbbb05.Emscripten.clang"
  },
  "schemaVersion": "2.0.0",
  "updatedAt": "2018-04-03T17:43:04.291Z"
}