{
  "contractName": "SimpleWallet",
  "abi": [
    {
      "inputs": [],
      "payable": false,
      "stateMutability": "nonpayable",
      "type": "constructor"
    },
    {
      "payable": true,
      "stateMutability": "payable",
      "type": "fallback"
    },
    {
      "anonymous": false,
      "inputs": [
        {
          "indexed": false,
          "name": "_sender",
          "type": "address"
        },
        {
          "indexed": false,
          "name": "amount",
          "type": "uint256"
        }
      ],
      "name": "Deposit",
      "type": "event"
    },
    {
      "anonymous": false,
      "inputs": [
        {
          "indexed": false,
          "name": "_sender",
          "type": "address"
        },
        {
          "indexed": false,
          "name": "amount",
          "type": "uint256"
        },
        {
          "indexed": false,
          "name": "_beneficiary",
          "type": "address"
        }
      ],
      "name": "Withdrawl",
      "type": "event"
    },
    {
      "constant": false,
      "inputs": [
        {
          "name": "amount",
          "type": "uint256"
        },
        {
          "name": "receiver",
          "type": "address"
        }
      ],
      "name": "sendFunds",
      "outputs": [
        {
          "name": "",
          "type": "uint256"
        }
      ],
      "payable": true,
      "stateMutability": "payable",
      "type": "function"
    },
    {
      "constant": false,
      "inputs": [
        {
          "name": "_address",
          "type": "address"
        }
      ],
      "name": "allowAddressToSendMoney",
      "outputs": [],
      "payable": false,
      "stateMutability": "nonpayable",
      "type": "function"
    },
    {
      "constant": false,
      "inputs": [
        {
          "name": "_address",
          "type": "address"
        }
      ],
      "name": "disallowAddressToSendMoney",
      "outputs": [],
      "payable": false,
      "stateMutability": "nonpayable",
      "type": "function"
    },
    {
      "constant": true,
      "inputs": [
        {
          "name": "_address",
          "type": "address"
        }
      ],
      "name": "isAllowedToSend",
      "outputs": [
        {
          "name": "",
          "type": "bool"
        }
      ],
      "payable": false,
      "stateMutability": "view",
      "type": "function"
    },
    {
      "constant": false,
      "inputs": [],
      "name": "killWallet",
      "outputs": [],
      "payable": false,
      "stateMutability": "nonpayable",
      "type": "function"
    }
  ],
  "bytecode": "0x6060604052341561000f57600080fd5b336000806101000a81548173ffffffffffffffffffffffffffffffffffffffff021916908373ffffffffffffffffffffffffffffffffffffffff1602179055506107e88061005e6000396000f30060606040526004361061006d576000357c0100000000000000000000000000000000000000000000000000000000900463ffffffff1680630bc605ad146100ee578063b26867741461013f578063b67ba1b51461018a578063c40046481461019f578063e481553e146101d8575b61007633610211565b151561008157600080fd5b7fe1fffcc4923d04b559f4d29a8bfc6cda04eb5b0d3c460751c2402c5c5cc9109c3334604051808373ffffffffffffffffffffffffffffffffffffffff1673ffffffffffffffffffffffffffffffffffffffff1681526020018281526020019250505060405180910390a1005b34156100f957600080fd5b610125600480803573ffffffffffffffffffffffffffffffffffffffff16906020019091905050610211565b604051808215151515815260200191505060405180910390f35b610174600480803590602001909190803573ffffffffffffffffffffffffffffffffffffffff169060200190919050506102c1565b6040518082815260200191505060405180910390f35b341561019557600080fd5b61019d6105c4565b005b34156101aa57600080fd5b6101d6600480803573ffffffffffffffffffffffffffffffffffffffff16906020019091905050610655565b005b34156101e357600080fd5b61020f600480803573ffffffffffffffffffffffffffffffffffffffff16906020019091905050610708565b005b6000600160008373ffffffffffffffffffffffffffffffffffffffff1673ffffffffffffffffffffffffffffffffffffffff16815260200190815260200160002060000160009054906101000a900460ff16806102ba57506000809054906101000a900473ffffffffffffffffffffffffffffffffffffffff1673ffffffffffffffffffffffffffffffffffffffff168273ffffffffffffffffffffffffffffffffffffffff16145b9050919050565b60006102cc33610211565b156105bd57823073ffffffffffffffffffffffffffffffffffffffff16311015156105bc57600115158273ffffffffffffffffffffffffffffffffffffffff166108fc859081150290604051600060405180830381858888f19350505050151514151561033857600080fd5b7f2ce435329ed2714bb4f4b7d0fe33307418dcf239c8c61d63a6b2fe052f7491c2338484604051808473ffffffffffffffffffffffffffffffffffffffff1673ffffffffffffffffffffffffffffffffffffffff1681526020018381526020018273ffffffffffffffffffffffffffffffffffffffff1673ffffffffffffffffffffffffffffffffffffffff168152602001935050505060405180910390a1600160003373ffffffffffffffffffffffffffffffffffffffff1673ffffffffffffffffffffffffffffffffffffffff1681526020019081526020016000206001016000815480929190600101919050555081600160003373ffffffffffffffffffffffffffffffffffffffff1673ffffffffffffffffffffffffffffffffffffffff1681526020019081526020016000206002016000600160003373ffffffffffffffffffffffffffffffffffffffff1673ffffffffffffffffffffffffffffffffffffffff16815260200190815260200160002060010154815260200190815260200160002060000160006101000a81548173ffffffffffffffffffffffffffffffffffffffff021916908373ffffffffffffffffffffffffffffffffffffffff16021790555082600160003373ffffffffffffffffffffffffffffffffffffffff1673ffffffffffffffffffffffffffffffffffffffff1681526020019081526020016000206002016000600160003373ffffffffffffffffffffffffffffffffffffffff1673ffffffffffffffffffffffffffffffffffffffff168152602001908152602001600020600101548152602001908152602001600020600101819055503073ffffffffffffffffffffffffffffffffffffffff163190506105be565b5b5b92915050565b6000809054906101000a900473ffffffffffffffffffffffffffffffffffffffff1673ffffffffffffffffffffffffffffffffffffffff163373ffffffffffffffffffffffffffffffffffffffff161415610653576000809054906101000a900473ffffffffffffffffffffffffffffffffffffffff1673ffffffffffffffffffffffffffffffffffffffff16ff5b565b6000809054906101000a900473ffffffffffffffffffffffffffffffffffffffff1673ffffffffffffffffffffffffffffffffffffffff163373ffffffffffffffffffffffffffffffffffffffff1614156107055760018060008373ffffffffffffffffffffffffffffffffffffffff1673ffffffffffffffffffffffffffffffffffffffff16815260200190815260200160002060000160006101000a81548160ff0219169083151502179055505b50565b6000809054906101000a900473ffffffffffffffffffffffffffffffffffffffff1673ffffffffffffffffffffffffffffffffffffffff163373ffffffffffffffffffffffffffffffffffffffff1614156107b9576000600160008373ffffffffffffffffffffffffffffffffffffffff1673ffffffffffffffffffffffffffffffffffffffff16815260200190815260200160002060000160006101000a81548160ff0219169083151502179055505b505600a165627a7a7230582078c0aa9e1423803a5d9388019f7fcb77d4aab2cb79822ba03b0d56806d5e8b300029",
  "source": "pragma solidity^0.4.17;\n\ncontract SimpleWallet {\n    address owner;\n    \n    struct WithdrawlStruct {\n        address to;\n        uint amount;\n    }\n\n    struct Senders {\n        bool allowed;\n        uint amount_sends;\n        mapping(uint => WithdrawlStruct) withdrawls;\n    }\n\n    mapping(address => Senders) isAllowedToSendFundsMapping;\n\n    event Deposit(address _sender, uint amount);\n    event Withdrawl(address _sender, uint amount, address _beneficiary);\n\n    function SimpleWallet() public {\n        owner = msg.sender;\n    }\n\n    function() public payable{\n        require(isAllowedToSend(msg.sender));\n        Deposit(msg.sender, msg.value);\n    }\n\n    function sendFunds(uint amount, address receiver) public payable returns (uint) {\n        if(isAllowedToSend(msg.sender)) {\n            if(address(this).balance >= amount){\n                require(receiver.send(amount) == true);\n                Withdrawl(msg.sender, amount, receiver);\n                isAllowedToSendFundsMapping[msg.sender].amount_sends++;\n                isAllowedToSendFundsMapping[msg.sender].withdrawls[isAllowedToSendFundsMapping[msg.sender].amount_sends].to = receiver;\n                isAllowedToSendFundsMapping[msg.sender].withdrawls[isAllowedToSendFundsMapping[msg.sender].amount_sends].amount = amount;\n                return address(this).balance;\n            }\n        }\n    }\n\n    function allowAddressToSendMoney(address _address) public {\n        if(msg.sender == owner) {\n            isAllowedToSendFundsMapping[_address].allowed = true;\n        }\n    }\n\n    function disallowAddressToSendMoney(address _address) public {\n        if(msg.sender == owner) {\n            isAllowedToSendFundsMapping[_address].allowed = false;\n        }\n    }\n\n    function isAllowedToSend(address _address) public constant returns (bool) {\n        return isAllowedToSendFundsMapping[_address].allowed || _address == owner;\n    }\n\n    function killWallet() public {\n        if(msg.sender == owner) {\n            selfdestruct(owner);\n        }\n    }\n\n}",
  "sourcePath": "/home/jatin/Projects/Blockchain/simplewallet/contracts/SimpleWallet.sol",
  "compiler": {
    "name": "solc",
    "version": "0.4.19+commit.c4cbbb05.Emscripten.clang"
  },
  "schemaVersion": "2.0.0",
  "updatedAt": "2018-04-02T09:14:23.265Z"
}