{
  "contractName": "SimpleWallet",
  "abi": [
    {
      "inputs": [],
      "payable": false,
      "stateMutability": "nonpayable",
      "type": "constructor"
    },
    {
      "payable": true,
      "stateMutability": "payable",
      "type": "fallback"
    },
    {
      "anonymous": false,
      "inputs": [
        {
          "indexed": false,
          "name": "_sender",
          "type": "address"
        },
        {
          "indexed": false,
          "name": "amount",
          "type": "uint256"
        }
      ],
      "name": "Deposit",
      "type": "event"
    },
    {
      "anonymous": false,
      "inputs": [
        {
          "indexed": false,
          "name": "_sender",
          "type": "address"
        },
        {
          "indexed": false,
          "name": "amount",
          "type": "uint256"
        },
        {
          "indexed": false,
          "name": "_beneficiary",
          "type": "address"
        }
      ],
      "name": "Withdrawl",
      "type": "event"
    },
    {
      "constant": false,
      "inputs": [
        {
          "name": "amount",
          "type": "uint256"
        },
        {
          "name": "receiver",
          "type": "address"
        }
      ],
      "name": "sendFunds",
      "outputs": [
        {
          "name": "",
          "type": "uint256"
        }
      ],
      "payable": false,
      "stateMutability": "nonpayable",
      "type": "function"
    },
    {
      "constant": false,
      "inputs": [
        {
          "name": "_address",
          "type": "address"
        }
      ],
      "name": "allowAddressToSendMoney",
      "outputs": [],
      "payable": false,
      "stateMutability": "nonpayable",
      "type": "function"
    },
    {
      "constant": false,
      "inputs": [
        {
          "name": "_address",
          "type": "address"
        }
      ],
      "name": "disallowAddressToSendMoney",
      "outputs": [],
      "payable": false,
      "stateMutability": "nonpayable",
      "type": "function"
    },
    {
      "constant": true,
      "inputs": [
        {
          "name": "_address",
          "type": "address"
        }
      ],
      "name": "isAllowedToSend",
      "outputs": [
        {
          "name": "",
          "type": "bool"
        }
      ],
      "payable": false,
      "stateMutability": "view",
      "type": "function"
    },
    {
      "constant": false,
      "inputs": [],
      "name": "killWallet",
      "outputs": [],
      "payable": false,
      "stateMutability": "nonpayable",
      "type": "function"
    }
  ],
  "bytecode": "0x6060604052341561000f57600080fd5b336000806101000a81548173ffffffffffffffffffffffffffffffffffffffff021916908373ffffffffffffffffffffffffffffffffffffffff1602179055506108988061005e6000396000f30060606040526004361061006d576000357c0100000000000000000000000000000000000000000000000000000000900463ffffffff1680630bc605ad14610193578063b2686774146101e4578063b67ba1b51461023a578063c40046481461024f578063e481553e14610288575b6000809054906101000a900473ffffffffffffffffffffffffffffffffffffffff1673ffffffffffffffffffffffffffffffffffffffff163373ffffffffffffffffffffffffffffffffffffffff16148061011b575060011515600160003373ffffffffffffffffffffffffffffffffffffffff1673ffffffffffffffffffffffffffffffffffffffff16815260200190815260200160002060000160009054906101000a900460ff161515145b151561012657600080fd5b7fe1fffcc4923d04b559f4d29a8bfc6cda04eb5b0d3c460751c2402c5c5cc9109c3334604051808373ffffffffffffffffffffffffffffffffffffffff1673ffffffffffffffffffffffffffffffffffffffff1681526020018281526020019250505060405180910390a1005b341561019e57600080fd5b6101ca600480803573ffffffffffffffffffffffffffffffffffffffff169060200190919050506102c1565b604051808215151515815260200191505060405180910390f35b34156101ef57600080fd5b610224600480803590602001909190803573ffffffffffffffffffffffffffffffffffffffff16906020019091905050610371565b6040518082815260200191505060405180910390f35b341561024557600080fd5b61024d610674565b005b341561025a57600080fd5b610286600480803573ffffffffffffffffffffffffffffffffffffffff16906020019091905050610705565b005b341561029357600080fd5b6102bf600480803573ffffffffffffffffffffffffffffffffffffffff169060200190919050506107b8565b005b6000600160008373ffffffffffffffffffffffffffffffffffffffff1673ffffffffffffffffffffffffffffffffffffffff16815260200190815260200160002060000160009054906101000a900460ff168061036a57506000809054906101000a900473ffffffffffffffffffffffffffffffffffffffff1673ffffffffffffffffffffffffffffffffffffffff168273ffffffffffffffffffffffffffffffffffffffff16145b9050919050565b600061037c336102c1565b1561066d57823073ffffffffffffffffffffffffffffffffffffffff163110151561066c57600115158273ffffffffffffffffffffffffffffffffffffffff166108fc859081150290604051600060405180830381858888f1935050505015151415156103e857600080fd5b7f2ce435329ed2714bb4f4b7d0fe33307418dcf239c8c61d63a6b2fe052f7491c2338484604051808473ffffffffffffffffffffffffffffffffffffffff1673ffffffffffffffffffffffffffffffffffffffff1681526020018381526020018273ffffffffffffffffffffffffffffffffffffffff1673ffffffffffffffffffffffffffffffffffffffff168152602001935050505060405180910390a1600160003373ffffffffffffffffffffffffffffffffffffffff1673ffffffffffffffffffffffffffffffffffffffff1681526020019081526020016000206001016000815480929190600101919050555081600160003373ffffffffffffffffffffffffffffffffffffffff1673ffffffffffffffffffffffffffffffffffffffff1681526020019081526020016000206002016000600160003373ffffffffffffffffffffffffffffffffffffffff1673ffffffffffffffffffffffffffffffffffffffff16815260200190815260200160002060010154815260200190815260200160002060000160006101000a81548173ffffffffffffffffffffffffffffffffffffffff021916908373ffffffffffffffffffffffffffffffffffffffff16021790555082600160003373ffffffffffffffffffffffffffffffffffffffff1673ffffffffffffffffffffffffffffffffffffffff1681526020019081526020016000206002016000600160003373ffffffffffffffffffffffffffffffffffffffff1673ffffffffffffffffffffffffffffffffffffffff168152602001908152602001600020600101548152602001908152602001600020600101819055503073ffffffffffffffffffffffffffffffffffffffff1631905061066e565b5b5b92915050565b6000809054906101000a900473ffffffffffffffffffffffffffffffffffffffff1673ffffffffffffffffffffffffffffffffffffffff163373ffffffffffffffffffffffffffffffffffffffff161415610703576000809054906101000a900473ffffffffffffffffffffffffffffffffffffffff1673ffffffffffffffffffffffffffffffffffffffff16ff5b565b6000809054906101000a900473ffffffffffffffffffffffffffffffffffffffff1673ffffffffffffffffffffffffffffffffffffffff163373ffffffffffffffffffffffffffffffffffffffff1614156107b55760018060008373ffffffffffffffffffffffffffffffffffffffff1673ffffffffffffffffffffffffffffffffffffffff16815260200190815260200160002060000160006101000a81548160ff0219169083151502179055505b50565b6000809054906101000a900473ffffffffffffffffffffffffffffffffffffffff1673ffffffffffffffffffffffffffffffffffffffff163373ffffffffffffffffffffffffffffffffffffffff161415610869576000600160008373ffffffffffffffffffffffffffffffffffffffff1673ffffffffffffffffffffffffffffffffffffffff16815260200190815260200160002060000160006101000a81548160ff0219169083151502179055505b505600a165627a7a7230582025745355f34b2cce641e5469dabf38a959f645a10d20d80da995f43ef56e6d690029",
  "source": "pragma solidity^0.4.17;\n\ncontract SimpleWallet {\n    address owner;\n    \n    struct WithdrawlStruct {\n        address to;\n        uint amount;\n    }\n\n    struct Senders {\n        bool allowed;\n        uint amount_sends;\n        mapping(uint => WithdrawlStruct) withdrawls;\n    }\n\n    mapping(address => Senders) isAllowedToSendFundsMapping;\n\n    event Deposit(address _sender, uint amount);\n    event Withdrawl(address _sender, uint amount, address _beneficiary);\n\n    function SimpleWallet() public {\n        owner = msg.sender;\n    }\n\n    function() public payable{\n        require(msg.sender == owner || isAllowedToSendFundsMapping[msg.sender].allowed == true);\n        Deposit(msg.sender, msg.value);\n        \n    }\n\n    function sendFunds(uint amount, address receiver) public returns (uint) {\n        if(isAllowedToSend(msg.sender)) {\n            if(this.balance >= amount){\n                require(receiver.send(amount) == true);\n                Withdrawl(msg.sender, amount, receiver);\n                isAllowedToSendFundsMapping[msg.sender].amount_sends++;\n                isAllowedToSendFundsMapping[msg.sender].withdrawls[isAllowedToSendFundsMapping[msg.sender].amount_sends].to = receiver;\n                isAllowedToSendFundsMapping[msg.sender].withdrawls[isAllowedToSendFundsMapping[msg.sender].amount_sends].amount = amount;\n                return this.balance;\n            }\n        }\n    }\n\n    function allowAddressToSendMoney(address _address) public {\n        if(msg.sender == owner) {\n            isAllowedToSendFundsMapping[_address].allowed = true;\n        }\n    }\n\n    function disallowAddressToSendMoney(address _address) public {\n        if(msg.sender == owner) {\n            isAllowedToSendFundsMapping[_address].allowed = false;\n        }\n    }\n\n    function isAllowedToSend(address _address) public constant returns (bool) {\n        return isAllowedToSendFundsMapping[_address].allowed || _address == owner;\n    }\n\n    function killWallet() public {\n        if(msg.sender == owner) {\n            selfdestruct(owner);\n        }\n    }\n\n}",
  "sourcePath": "/home/jatin/Projects/Blockchain/simplewallet/contracts/SimpleWallet.sol",
  "compiler": {
    "name": "solc",
    "version": "0.4.19+commit.c4cbbb05.Emscripten.clang"
  },
  "schemaVersion": "2.0.0",
  "updatedAt": "2018-03-27T16:37:09.568Z"
}